{
  "contractName": "ComplianceAudit",
  "abi": [
    {
      "inputs": [
        {
          "internalType": "address",
          "name": "_userManagementAddress",
          "type": "address"
        },
        {
          "internalType": "address",
          "name": "_recyclerAddress",
          "type": "address"
        },
        {
          "internalType": "address",
          "name": "_eWasteTrackerAddress",
          "type": "address"
        }
      ],
      "stateMutability": "nonpayable",
      "type": "constructor"
    },
    {
      "anonymous": false,
      "inputs": [
        {
          "indexed": false,
          "internalType": "uint256",
          "name": "wasteId",
          "type": "uint256"
        },
        {
          "indexed": false,
          "internalType": "string",
          "name": "status",
          "type": "string"
        },
        {
          "indexed": false,
          "internalType": "uint256",
          "name": "auditedAt",
          "type": "uint256"
        }
      ],
      "name": "AuditLogged",
      "type": "event"
    },
    {
      "anonymous": false,
      "inputs": [
        {
          "indexed": false,
          "internalType": "uint256",
          "name": "wasteId",
          "type": "uint256"
        },
        {
          "indexed": false,
          "internalType": "address",
          "name": "recycler",
          "type": "address"
        },
        {
          "indexed": false,
          "internalType": "string",
          "name": "details",
          "type": "string"
        }
      ],
      "name": "NonComplianceLogged",
      "type": "event"
    },
    {
      "inputs": [
        {
          "internalType": "uint256",
          "name": "",
          "type": "uint256"
        }
      ],
      "name": "audits",
      "outputs": [
        {
          "internalType": "uint256",
          "name": "wasteId",
          "type": "uint256"
        },
        {
          "internalType": "string",
          "name": "auditStatus",
          "type": "string"
        },
        {
          "internalType": "uint256",
          "name": "auditedAt",
          "type": "uint256"
        }
      ],
      "stateMutability": "view",
      "type": "function",
      "constant": true
    },
    {
      "inputs": [],
      "name": "eWasteTracker",
      "outputs": [
        {
          "internalType": "contract eWasteTracking",
          "name": "",
          "type": "address"
        }
      ],
      "stateMutability": "view",
      "type": "function",
      "constant": true
    },
    {
      "inputs": [],
      "name": "recycler",
      "outputs": [
        {
          "internalType": "contract RecyclingManagement",
          "name": "",
          "type": "address"
        }
      ],
      "stateMutability": "view",
      "type": "function",
      "constant": true
    },
    {
      "inputs": [],
      "name": "userManagement",
      "outputs": [
        {
          "internalType": "contract UserManagement",
          "name": "",
          "type": "address"
        }
      ],
      "stateMutability": "view",
      "type": "function",
      "constant": true
    },
    {
      "inputs": [
        {
          "internalType": "uint256",
          "name": "_wasteId",
          "type": "uint256"
        },
        {
          "internalType": "string",
          "name": "_status",
          "type": "string"
        }
      ],
      "name": "logAudit",
      "outputs": [],
      "stateMutability": "nonpayable",
      "type": "function"
    }
  ],
  "bytecode": "0x60806040523480156200001157600080fd5b506040516200107738038062001077833981810160405281019062000037919062000119565b826000806101000a81548173ffffffffffffffffffffffffffffffffffffffff021916908373ffffffffffffffffffffffffffffffffffffffff16021790555081600160006101000a81548173ffffffffffffffffffffffffffffffffffffffff021916908373ffffffffffffffffffffffffffffffffffffffff16021790555080600260006101000a81548173ffffffffffffffffffffffffffffffffffffffff021916908373ffffffffffffffffffffffffffffffffffffffff160217905550505050620001bd565b6000815190506200011381620001a3565b92915050565b6000806000606084860312156200012f57600080fd5b60006200013f8682870162000102565b9350506020620001528682870162000102565b9250506040620001658682870162000102565b9150509250925092565b60006200017c8262000183565b9050919050565b600073ffffffffffffffffffffffffffffffffffffffff82169050919050565b620001ae816200016f565b8114620001ba57600080fd5b50565b610eaa80620001cd6000396000f3fe608060405234801561001057600080fd5b50600436106100575760003560e01c80636a767f501461005c5780639b5e847c1461007a578063b60e73db14610098578063da050922146100ca578063ee7aca47146100e6575b600080fd5b610064610104565b6040516100719190610b20565b60405180910390f35b610082610128565b60405161008f9190610b3b565b60405180910390f35b6100b260048036038101906100ad91906107fa565b61014e565b6040516100c193929190610bcd565b60405180910390f35b6100e460048036038101906100df9190610823565b610200565b005b6100ee6105cf565b6040516100fb9190610b05565b60405180910390f35b60008054906101000a900473ffffffffffffffffffffffffffffffffffffffff1681565b600260009054906101000a900473ffffffffffffffffffffffffffffffffffffffff1681565b600360205280600052604060002060009150905080600001549080600101805461017790610d7e565b80601f01602080910402602001604051908101604052809291908181526020018280546101a390610d7e565b80156101f05780601f106101c5576101008083540402835291602001916101f0565b820191906000526020600020905b8154815290600101906020018083116101d357829003601f168201915b5050505050908060020154905083565b6003600481111561023a577f4e487b7100000000000000000000000000000000000000000000000000000000600052602160045260246000fd5b60008054906101000a900473ffffffffffffffffffffffffffffffffffffffff1673ffffffffffffffffffffffffffffffffffffffff166327820851336040518263ffffffff1660e01b81526004016102939190610aea565b60206040518083038186803b1580156102ab57600080fd5b505afa1580156102bf573d6000803e3d6000fd5b505050506040513d601f19601f820116820180604052508101906102e391906107d1565b600481111561031b577f4e487b7100000000000000000000000000000000000000000000000000000000600052602160045260246000fd5b1461035b576040517f08c379a000000000000000000000000000000000000000000000000000000000815260040161035290610b56565b60405180910390fd5b600080600080600160009054906101000a900473ffffffffffffffffffffffffffffffffffffffff1673ffffffffffffffffffffffffffffffffffffffff16630a64d21c876040518263ffffffff1660e01b81526004016103bc9190610b76565b60006040518083038186803b1580156103d457600080fd5b505afa1580156103e8573d6000803e3d6000fd5b505050506040513d6000823e3d601f19601f820116820180604052508101906104119190610877565b93509350935093506000806000806000806000600260009054906101000a900473ffffffffffffffffffffffffffffffffffffffff1673ffffffffffffffffffffffffffffffffffffffff166306cf1cb68e6040518263ffffffff1660e01b815260040161047f9190610b76565b60006040518083038186803b15801561049757600080fd5b505afa1580156104ab573d6000803e3d6000fd5b505050506040513d6000823e3d601f19601f820116820180604052508101906104d491906108f2565b965096509650965096509650965060405180606001604052808e81526020018d815260200142815250600360008f81526020019081526020016000206000820151816000015560208201518160010190805190602001906105369291906105f5565b50604082015181600201559050507f734b1336565be6bd6a148a740448f916d5e3727f6b15c341087e737a5f5cc3aa8d8d4260405161057793929190610bcd565b60405180910390a1828811156105c0577e5b0a263564fd7a0e383f79c46d268a81c8074c1a7a3f9df8f7dd33542844938d8a6040516105b7929190610b91565b60405180910390a15b50505050505050505050505050565b600160009054906101000a900473ffffffffffffffffffffffffffffffffffffffff1681565b82805461060190610d7e565b90600052602060002090601f016020900481019282610623576000855561066a565b82601f1061063c57805160ff191683800117855561066a565b8280016001018555821561066a579182015b8281111561066957825182559160200191906001019061064e565b5b509050610677919061067b565b5090565b5b8082111561069457600081600090555060010161067c565b5090565b60006106ab6106a684610c3c565b610c0b565b9050828152602081018484840111156106c357600080fd5b6106ce848285610d3c565b509392505050565b60006106e96106e484610c3c565b610c0b565b90508281526020810184848401111561070157600080fd5b61070c848285610d4b565b509392505050565b60008151905061072381610e1f565b92915050565b60008151905061073881610e36565b92915050565b60008151905061074d81610e4d565b92915050565b600082601f83011261076457600080fd5b8135610774848260208601610698565b91505092915050565b600082601f83011261078e57600080fd5b815161079e8482602086016106d6565b91505092915050565b6000813590506107b681610e5d565b92915050565b6000815190506107cb81610e5d565b92915050565b6000602082840312156107e357600080fd5b60006107f18482850161073e565b91505092915050565b60006020828403121561080c57600080fd5b600061081a848285016107a7565b91505092915050565b6000806040838503121561083657600080fd5b6000610844858286016107a7565b925050602083013567ffffffffffffffff81111561086157600080fd5b61086d85828601610753565b9150509250929050565b6000806000806080858703121561088d57600080fd5b600061089b878288016107bc565b945050602085015167ffffffffffffffff8111156108b857600080fd5b6108c48782880161077d565b93505060406108d587828801610714565b92505060606108e6878288016107bc565b91505092959194509250565b600080600080600080600060e0888a03121561090d57600080fd5b600061091b8a828b016107bc565b975050602088015167ffffffffffffffff81111561093857600080fd5b6109448a828b0161077d565b965050604088015167ffffffffffffffff81111561096157600080fd5b61096d8a828b0161077d565b955050606061097e8a828b016107bc565b945050608061098f8a828b016107bc565b93505060a06109a08a828b016107bc565b92505060c06109b18a828b01610729565b91505092959891949750929550565b6109c981610c88565b82525050565b6109d881610cd0565b82525050565b6109e781610cf4565b82525050565b6109f681610d18565b82525050565b6000610a0782610c6c565b610a118185610c77565b9350610a21818560208601610d4b565b610a2a81610e0e565b840191505092915050565b6000610a42602d83610c77565b91507f556e617574686f72697a65643a204f6e6c7920726567756c61746f727320636160008301527f6e206c6f67206175646974732e000000000000000000000000000000000000006020830152604082019050919050565b6000610aa8601a83610c77565b91507f52656379636c696e67206d697373656420646561646c696e652e0000000000006000830152602082019050919050565b610ae481610cc6565b82525050565b6000602082019050610aff60008301846109c0565b92915050565b6000602082019050610b1a60008301846109cf565b92915050565b6000602082019050610b3560008301846109de565b92915050565b6000602082019050610b5060008301846109ed565b92915050565b60006020820190508181036000830152610b6f81610a35565b9050919050565b6000602082019050610b8b6000830184610adb565b92915050565b6000606082019050610ba66000830185610adb565b610bb360208301846109c0565b8181036040830152610bc481610a9b565b90509392505050565b6000606082019050610be26000830186610adb565b8181036020830152610bf481856109fc565b9050610c036040830184610adb565b949350505050565b6000604051905081810181811067ffffffffffffffff82111715610c3257610c31610ddf565b5b8060405250919050565b600067ffffffffffffffff821115610c5757610c56610ddf565b5b601f19601f8301169050602081019050919050565b600081519050919050565b600082825260208201905092915050565b6000610c9382610ca6565b9050919050565b60008115159050919050565b600073ffffffffffffffffffffffffffffffffffffffff82169050919050565b6000819050919050565b6000610cdb82610ce2565b9050919050565b6000610ced82610ca6565b9050919050565b6000610cff82610d06565b9050919050565b6000610d1182610ca6565b9050919050565b6000610d2382610d2a565b9050919050565b6000610d3582610ca6565b9050919050565b82818337600083830152505050565b60005b83811015610d69578082015181840152602081019050610d4e565b83811115610d78576000848401525b50505050565b60006002820490506001821680610d9657607f821691505b60208210811415610daa57610da9610db0565b5b50919050565b7f4e487b7100000000000000000000000000000000000000000000000000000000600052602260045260246000fd5b7f4e487b7100000000000000000000000000000000000000000000000000000000600052604160045260246000fd5b6000601f19601f8301169050919050565b610e2881610c88565b8114610e3357600080fd5b50565b610e3f81610c9a565b8114610e4a57600080fd5b50565b60058110610e5a57600080fd5b50565b610e6681610cc6565b8114610e7157600080fd5b5056fea2646970667358221220c5579b6f85c71192377ea344fb72c6e6404898518e75f0b243a8494a8385ffe764736f6c63430008000033",
  "immutableReferences": {},
  "source": "// SPDX-License-Identifier: MIT\r\npragma solidity ^0.8.0;\r\n\r\nimport \"./UserManagement.sol\";\r\nimport \"./RecyclingManagement.sol\";\r\nimport \"./eWasteTracking.sol\";\r\n\r\ncontract ComplianceAudit {\r\n    UserManagement public userManagement;\r\n    RecyclingManagement public recycler;\r\n    eWasteTracking public eWasteTracker;\r\n\r\n    struct AuditRecord {\r\n        uint wasteId;\r\n        string auditStatus;\r\n        uint256 auditedAt;\r\n    }\r\n\r\n    mapping(uint => AuditRecord) public audits;\r\n    \r\n    event AuditLogged(uint wasteId, string status, uint256 auditedAt);\r\n    event NonComplianceLogged(uint wasteId, address recycler, string details);\r\n\r\n    constructor(\r\n        address _userManagementAddress,\r\n        address _recyclerAddress,\r\n        address _eWasteTrackerAddress\r\n    ) {\r\n        userManagement = UserManagement(_userManagementAddress);\r\n        recycler = RecyclingManagement(_recyclerAddress);\r\n        eWasteTracker = eWasteTracking(_eWasteTrackerAddress);\r\n    }\r\n\r\n    function logAudit(uint _wasteId, string memory _status) external {\r\n        require(\r\n            userManagement.getUserRole(msg.sender) == UserManagement.Role.Regulator,\r\n            \"Unauthorized: Only regulators can log audits.\"\r\n        );\r\n        \r\n        (\r\n        uint recycledId,\r\n        string memory method,\r\n        address recyclerAddress,\r\n        uint256 recycledAt\r\n    ) = recycler.getRecycledItem(_wasteId);\r\n\r\n    (\r\n        uint wasteId,\r\n        string memory wasteType,\r\n        string memory origin,\r\n        uint quantity,\r\n        uint256 deadline,\r\n        uint256 loggedAt,\r\n        bool isProcessed\r\n    ) = eWasteTracker.getWasteItem(_wasteId);\r\n        \r\n        audits[_wasteId] = AuditRecord({\r\n            wasteId: _wasteId,\r\n            auditStatus: _status,\r\n            auditedAt: block.timestamp\r\n        });\r\n        emit AuditLogged(_wasteId, _status, block.timestamp);\r\n\r\n        if (recycledAt > deadline) {\r\n        emit NonComplianceLogged(_wasteId, recyclerAddress, \"Recycling missed deadline.\");\r\n    }\r\n    }\r\n}",
  "sourcePath": "C:\\Users\\tanaj\\Downloads\\ewaste-tracking\\ewaste-tracking\\contracts\\ComplianceAudit.sol",
  "compiler": {
    "name": "solc",
    "version": "0.8.0+commit.c7dfd78e.Emscripten.clang"
  },
  "schemaVersion": "3.4.16",
  "updatedAt": "2025-03-04T06:11:20.197Z",
  "networkType": "ethereum",
  "devdoc": {
    "kind": "dev",
    "methods": {},
    "version": 1
  },
  "userdoc": {
    "kind": "user",
    "methods": {},
    "version": 1
  }
}