{
  "contractName": "eWasteTracking",
  "abi": [
    {
      "inputs": [
        {
          "internalType": "address",
          "name": "_userManagementAddress",
          "type": "address"
        }
      ],
      "stateMutability": "nonpayable",
      "type": "constructor"
    },
    {
      "anonymous": false,
      "inputs": [
        {
          "indexed": false,
          "internalType": "uint256",
          "name": "id",
          "type": "uint256"
        },
        {
          "indexed": false,
          "internalType": "string",
          "name": "wasteType",
          "type": "string"
        },
        {
          "indexed": false,
          "internalType": "string",
          "name": "origin",
          "type": "string"
        },
        {
          "indexed": false,
          "internalType": "uint256",
          "name": "quantity",
          "type": "uint256"
        },
        {
          "indexed": false,
          "internalType": "uint256",
          "name": "deadline",
          "type": "uint256"
        }
      ],
      "name": "WasteLogged",
      "type": "event"
    },
    {
      "anonymous": false,
      "inputs": [
        {
          "indexed": false,
          "internalType": "uint256",
          "name": "id",
          "type": "uint256"
        }
      ],
      "name": "WasteProcessed",
      "type": "event"
    },
    {
      "inputs": [],
      "name": "userManagement",
      "outputs": [
        {
          "internalType": "contract UserManagement",
          "name": "",
          "type": "address"
        }
      ],
      "stateMutability": "view",
      "type": "function",
      "constant": true
    },
    {
      "inputs": [],
      "name": "wasteCounter",
      "outputs": [
        {
          "internalType": "uint256",
          "name": "",
          "type": "uint256"
        }
      ],
      "stateMutability": "view",
      "type": "function",
      "constant": true
    },
    {
      "inputs": [
        {
          "internalType": "uint256",
          "name": "",
          "type": "uint256"
        }
      ],
      "name": "wasteRecords",
      "outputs": [
        {
          "internalType": "uint256",
          "name": "id",
          "type": "uint256"
        },
        {
          "internalType": "string",
          "name": "wasteType",
          "type": "string"
        },
        {
          "internalType": "string",
          "name": "origin",
          "type": "string"
        },
        {
          "internalType": "uint256",
          "name": "quantity",
          "type": "uint256"
        },
        {
          "internalType": "uint256",
          "name": "deadline",
          "type": "uint256"
        },
        {
          "internalType": "uint256",
          "name": "loggedAt",
          "type": "uint256"
        },
        {
          "internalType": "bool",
          "name": "isProcessed",
          "type": "bool"
        }
      ],
      "stateMutability": "view",
      "type": "function",
      "constant": true
    },
    {
      "inputs": [
        {
          "internalType": "string",
          "name": "_wasteType",
          "type": "string"
        },
        {
          "internalType": "string",
          "name": "_origin",
          "type": "string"
        },
        {
          "internalType": "uint256",
          "name": "_quantity",
          "type": "uint256"
        },
        {
          "internalType": "uint256",
          "name": "_deadline",
          "type": "uint256"
        }
      ],
      "name": "logWaste",
      "outputs": [],
      "stateMutability": "nonpayable",
      "type": "function"
    },
    {
      "inputs": [
        {
          "internalType": "uint256",
          "name": "_id",
          "type": "uint256"
        }
      ],
      "name": "markAsProcessed",
      "outputs": [],
      "stateMutability": "nonpayable",
      "type": "function"
    },
    {
      "inputs": [
        {
          "internalType": "uint256",
          "name": "_id",
          "type": "uint256"
        }
      ],
      "name": "getWasteItem",
      "outputs": [
        {
          "internalType": "uint256",
          "name": "id",
          "type": "uint256"
        },
        {
          "internalType": "string",
          "name": "wasteType",
          "type": "string"
        },
        {
          "internalType": "string",
          "name": "origin",
          "type": "string"
        },
        {
          "internalType": "uint256",
          "name": "quantity",
          "type": "uint256"
        },
        {
          "internalType": "uint256",
          "name": "deadline",
          "type": "uint256"
        },
        {
          "internalType": "uint256",
          "name": "loggedAt",
          "type": "uint256"
        },
        {
          "internalType": "bool",
          "name": "isProcessed",
          "type": "bool"
        }
      ],
      "stateMutability": "view",
      "type": "function",
      "constant": true
    }
  ],
  "bytecode": "0x60806040523480156200001157600080fd5b50604051620013123803806200131283398181016040528101906200003791906200009d565b806000806101000a81548173ffffffffffffffffffffffffffffffffffffffff021916908373ffffffffffffffffffffffffffffffffffffffff16021790555060006002819055505062000117565b6000815190506200009781620000fd565b92915050565b600060208284031215620000b057600080fd5b6000620000c08482850162000086565b91505092915050565b6000620000d682620000dd565b9050919050565b600073ffffffffffffffffffffffffffffffffffffffff82169050919050565b6200010881620000c9565b81146200011457600080fd5b50565b6111eb80620001276000396000f3fe608060405234801561001057600080fd5b50600436106100625760003560e01c806306cf1cb6146100675780631250b9521461009d578063247ab51f146100d357806324d594ed146100ef5780636a767f501461010d578063b878845f1461012b575b600080fd5b610081600480360381019061007c9190610bd7565b610147565b6040516100949796959493929190610ecd565b60405180910390f35b6100b760048036038101906100b29190610bd7565b61032f565b6040516100ca9796959493929190610ecd565b60405180910390f35b6100ed60048036038101906100e89190610bd7565b61048e565b005b6100f76106ab565b6040516101049190610e51565b60405180910390f35b6101156106b1565b6040516101229190610db6565b60405180910390f35b61014560048036038101906101409190610b44565b6106d5565b005b60006060806000806000806001600089815260200190815260200160002060000154600160008a8152602001908152602001600020600101600160008b8152602001908152602001600020600201600160008c815260200190815260200160002060030154600160008d815260200190815260200160002060040154600160008e815260200190815260200160002060050154600160008f815260200190815260200160002060060160009054906101000a900460ff1685805461020a90611075565b80601f016020809104026020016040519081016040528092919081815260200182805461023690611075565b80156102835780601f1061025857610100808354040283529160200191610283565b820191906000526020600020905b81548152906001019060200180831161026657829003601f168201915b5050505050955084805461029690611075565b80601f01602080910402602001604051908101604052809291908181526020018280546102c290611075565b801561030f5780601f106102e45761010080835404028352916020019161030f565b820191906000526020600020905b8154815290600101906020018083116102f257829003601f168201915b505050505094509650965096509650965096509650919395979092949650565b600160205280600052604060002060009150905080600001549080600101805461035890611075565b80601f016020809104026020016040519081016040528092919081815260200182805461038490611075565b80156103d15780601f106103a6576101008083540402835291602001916103d1565b820191906000526020600020905b8154815290600101906020018083116103b457829003601f168201915b5050505050908060020180546103e690611075565b80601f016020809104026020016040519081016040528092919081815260200182805461041290611075565b801561045f5780601f106104345761010080835404028352916020019161045f565b820191906000526020600020905b81548152906001019060200180831161044257829003601f168201915b5050505050908060030154908060040154908060050154908060060160009054906101000a900460ff16905087565b600160048111156104c8577f4e487b7100000000000000000000000000000000000000000000000000000000600052602160045260246000fd5b60008054906101000a900473ffffffffffffffffffffffffffffffffffffffff1673ffffffffffffffffffffffffffffffffffffffff166327820851336040518263ffffffff1660e01b81526004016105219190610d9b565b60206040518083038186803b15801561053957600080fd5b505afa15801561054d573d6000803e3d6000fd5b505050506040513d601f19601f820116820180604052508101906105719190610b1b565b60048111156105a9577f4e487b7100000000000000000000000000000000000000000000000000000000600052602160045260246000fd5b146105e9576040517f08c379a00000000000000000000000000000000000000000000000000000000081526004016105e090610dd1565b60405180910390fd5b600060016000838152602001908152602001600020600001541415610643576040517f08c379a000000000000000000000000000000000000000000000000000000000815260040161063a90610df1565b60405180910390fd5b600180600083815260200190815260200160002060060160006101000a81548160ff0219169083151502179055507fa9a37dc4f68726f711560d66ad722f4ea763d25ebe7c8d86167d886fa861105f816040516106a09190610e51565b60405180910390a150565b60025481565b60008054906101000a900473ffffffffffffffffffffffffffffffffffffffff1681565b6000600481111561070f577f4e487b7100000000000000000000000000000000000000000000000000000000600052602160045260246000fd5b60008054906101000a900473ffffffffffffffffffffffffffffffffffffffff1673ffffffffffffffffffffffffffffffffffffffff166327820851336040518263ffffffff1660e01b81526004016107689190610d9b565b60206040518083038186803b15801561078057600080fd5b505afa158015610794573d6000803e3d6000fd5b505050506040513d601f19601f820116820180604052508101906107b89190610b1b565b60048111156107f0577f4e487b7100000000000000000000000000000000000000000000000000000000600052602160045260246000fd5b14610830576040517f08c379a000000000000000000000000000000000000000000000000000000000815260040161082790610dd1565b60405180910390fd5b60008211610873576040517f08c379a000000000000000000000000000000000000000000000000000000000815260040161086a90610e11565b60405180910390fd5b4281116108b5576040517f08c379a00000000000000000000000000000000000000000000000000000000081526004016108ac90610e31565b60405180910390fd5b600260008154809291906108c8906110a7565b91905055506040518060e001604052806002548152602001858152602001848152602001838152602001828152602001428152602001600015158152506001600060025481526020019081526020016000206000820151816000015560208201518160010190805190602001906109409291906109e6565b50604082015181600201908051906020019061095d9291906109e6565b50606082015181600301556080820151816004015560a0820151816005015560c08201518160060160006101000a81548160ff0219169083151502179055509050507f83402a18b59156096f190f49c5357369ed0fd7b121d97d3a02ef6bed2095ac08600254858585856040516109d8959493929190610e6c565b60405180910390a150505050565b8280546109f290611075565b90600052602060002090601f016020900481019282610a145760008555610a5b565b82601f10610a2d57805160ff1916838001178555610a5b565b82800160010185558215610a5b579182015b82811115610a5a578251825591602001919060010190610a3f565b5b509050610a689190610a6c565b5090565b5b80821115610a85576000816000905550600101610a6d565b5090565b6000610a9c610a9784610f7b565b610f4a565b905082815260208101848484011115610ab457600080fd5b610abf848285611033565b509392505050565b600081519050610ad68161118e565b92915050565b600082601f830112610aed57600080fd5b8135610afd848260208601610a89565b91505092915050565b600081359050610b158161119e565b92915050565b600060208284031215610b2d57600080fd5b6000610b3b84828501610ac7565b91505092915050565b60008060008060808587031215610b5a57600080fd5b600085013567ffffffffffffffff811115610b7457600080fd5b610b8087828801610adc565b945050602085013567ffffffffffffffff811115610b9d57600080fd5b610ba987828801610adc565b9350506040610bba87828801610b06565b9250506060610bcb87828801610b06565b91505092959194509250565b600060208284031215610be957600080fd5b6000610bf784828501610b06565b91505092915050565b610c0981610fc7565b82525050565b610c1881610fd9565b82525050565b610c278161100f565b82525050565b6000610c3882610fab565b610c428185610fb6565b9350610c52818560208601611042565b610c5b8161117d565b840191505092915050565b6000610c73600c83610fb6565b91507f556e617574686f72697a656400000000000000000000000000000000000000006000830152602082019050919050565b6000610cb3601a83610fb6565b91507f5761737465206974656d20646f6573206e6f742065786973742e0000000000006000830152602082019050919050565b6000610cf3602383610fb6565b91507f5175616e74697479206d7573742062652067726561746572207468616e207a6560008301527f726f2e00000000000000000000000000000000000000000000000000000000006020830152604082019050919050565b6000610d59601f83610fb6565b91507f446561646c696e65206d75737420626520696e20746865206675747572652e006000830152602082019050919050565b610d9581611005565b82525050565b6000602082019050610db06000830184610c00565b92915050565b6000602082019050610dcb6000830184610c1e565b92915050565b60006020820190508181036000830152610dea81610c66565b9050919050565b60006020820190508181036000830152610e0a81610ca6565b9050919050565b60006020820190508181036000830152610e2a81610ce6565b9050919050565b60006020820190508181036000830152610e4a81610d4c565b9050919050565b6000602082019050610e666000830184610d8c565b92915050565b600060a082019050610e816000830188610d8c565b8181036020830152610e938187610c2d565b90508181036040830152610ea78186610c2d565b9050610eb66060830185610d8c565b610ec36080830184610d8c565b9695505050505050565b600060e082019050610ee2600083018a610d8c565b8181036020830152610ef48189610c2d565b90508181036040830152610f088188610c2d565b9050610f176060830187610d8c565b610f246080830186610d8c565b610f3160a0830185610d8c565b610f3e60c0830184610c0f565b98975050505050505050565b6000604051905081810181811067ffffffffffffffff82111715610f7157610f7061114e565b5b8060405250919050565b600067ffffffffffffffff821115610f9657610f9561114e565b5b601f19601f8301169050602081019050919050565b600081519050919050565b600082825260208201905092915050565b6000610fd282610fe5565b9050919050565b60008115159050919050565b600073ffffffffffffffffffffffffffffffffffffffff82169050919050565b6000819050919050565b600061101a82611021565b9050919050565b600061102c82610fe5565b9050919050565b82818337600083830152505050565b60005b83811015611060578082015181840152602081019050611045565b8381111561106f576000848401525b50505050565b6000600282049050600182168061108d57607f821691505b602082108114156110a1576110a061111f565b5b50919050565b60006110b282611005565b91507fffffffffffffffffffffffffffffffffffffffffffffffffffffffffffffffff8214156110e5576110e46110f0565b5b600182019050919050565b7f4e487b7100000000000000000000000000000000000000000000000000000000600052601160045260246000fd5b7f4e487b7100000000000000000000000000000000000000000000000000000000600052602260045260246000fd5b7f4e487b7100000000000000000000000000000000000000000000000000000000600052604160045260246000fd5b6000601f19601f8301169050919050565b6005811061119b57600080fd5b50565b6111a781611005565b81146111b257600080fd5b5056fea264697066735822122042197f42ec757abc107be9ea16a3a484b9f580260ebf28d0f55b3d07280ca25b64736f6c63430008000033",
  "immutableReferences": {},
  "source": "// SPDX-License-Identifier: MIT\r\npragma solidity ^0.8.0;\r\n\r\nimport \"./UserManagement.sol\";\r\n\r\ncontract eWasteTracking {\r\n    UserManagement public userManagement;\r\n\r\n    struct eWasteItem {\r\n        uint id;\r\n        string wasteType;\r\n        string origin;\r\n        uint quantity;\r\n        uint256 deadline; // Deadline set by producer\r\n        uint256 loggedAt;\r\n        bool isProcessed;\r\n    }\r\n\r\n    mapping(uint => eWasteItem) public wasteRecords;\r\n    uint public wasteCounter;\r\n\r\n    event WasteLogged(uint id, string wasteType, string origin, uint quantity, uint256 deadline);\r\n    event WasteProcessed(uint id);\r\n\r\n    constructor(address _userManagementAddress) {\r\n        userManagement = UserManagement(_userManagementAddress);\r\n        wasteCounter = 0;\r\n    }\r\n\r\n    function logWaste(\r\n        string memory _wasteType,\r\n        string memory _origin,\r\n        uint _quantity,\r\n        uint256 _deadline\r\n    ) external {\r\n        require(userManagement.getUserRole(msg.sender) == UserManagement.Role.Producer, \"Unauthorized\");\r\n        require(_quantity > 0, \"Quantity must be greater than zero.\");\r\n        require(_deadline > block.timestamp, \"Deadline must be in the future.\");\r\n\r\n        wasteCounter++;\r\n        wasteRecords[wasteCounter] = eWasteItem({\r\n            id: wasteCounter,\r\n            wasteType: _wasteType,\r\n            origin: _origin,\r\n            quantity: _quantity,\r\n            deadline: _deadline,\r\n            loggedAt: block.timestamp,\r\n            isProcessed: false\r\n        });\r\n        emit WasteLogged(wasteCounter, _wasteType, _origin, _quantity, _deadline);\r\n    }\r\n\r\n    // Only recyclers can mark as processed\r\n    function markAsProcessed(uint _id) external {\r\n        require(userManagement.getUserRole(msg.sender) == UserManagement.Role.Recycler, \"Unauthorized\");\r\n        require(wasteRecords[_id].id != 0, \"Waste item does not exist.\");\r\n        wasteRecords[_id].isProcessed = true;\r\n        emit WasteProcessed(_id);\r\n    }\r\n\r\n    function getWasteItem(uint _id) external view returns (\r\n        uint id,\r\n        string memory wasteType,\r\n        string memory origin,\r\n        uint quantity,\r\n        uint256 deadline,\r\n        uint256 loggedAt,\r\n        bool isProcessed\r\n    ) {\r\n        return (\r\n            wasteRecords[_id].id,\r\n            wasteRecords[_id].wasteType,\r\n            wasteRecords[_id].origin,\r\n            wasteRecords[_id].quantity,\r\n            wasteRecords[_id].deadline,\r\n            wasteRecords[_id].loggedAt,\r\n            wasteRecords[_id].isProcessed\r\n        );\r\n    }\r\n}",
  "sourcePath": "C:\\Users\\tanaj\\Downloads\\ewaste-tracking\\ewaste-tracking\\contracts\\eWasteTracking.sol",
  "compiler": {
    "name": "solc",
    "version": "0.8.0+commit.c7dfd78e.Emscripten.clang"
  },
  "schemaVersion": "3.4.16",
  "updatedAt": "2025-03-04T06:11:20.166Z",
  "networkType": "ethereum",
  "devdoc": {
    "kind": "dev",
    "methods": {},
    "version": 1
  },
  "userdoc": {
    "kind": "user",
    "methods": {},
    "version": 1
  }
}