{
  "contractName": "LogisticsTracking",
  "abi": [
    {
      "inputs": [
        {
          "internalType": "address",
          "name": "_userManagementAddress",
          "type": "address"
        }
      ],
      "stateMutability": "nonpayable",
      "type": "constructor"
    },
    {
      "anonymous": false,
      "inputs": [
        {
          "indexed": false,
          "internalType": "uint256",
          "name": "wasteId",
          "type": "uint256"
        },
        {
          "indexed": false,
          "internalType": "string",
          "name": "status",
          "type": "string"
        },
        {
          "indexed": false,
          "internalType": "uint256",
          "name": "updatedAt",
          "type": "uint256"
        }
      ],
      "name": "ShipmentUpdated",
      "type": "event"
    },
    {
      "inputs": [
        {
          "internalType": "uint256",
          "name": "",
          "type": "uint256"
        }
      ],
      "name": "shipments",
      "outputs": [
        {
          "internalType": "uint256",
          "name": "wasteId",
          "type": "uint256"
        },
        {
          "internalType": "string",
          "name": "status",
          "type": "string"
        },
        {
          "internalType": "address",
          "name": "transporter",
          "type": "address"
        },
        {
          "internalType": "uint256",
          "name": "updatedAt",
          "type": "uint256"
        }
      ],
      "stateMutability": "view",
      "type": "function",
      "constant": true
    },
    {
      "inputs": [],
      "name": "userManagement",
      "outputs": [
        {
          "internalType": "contract UserManagement",
          "name": "",
          "type": "address"
        }
      ],
      "stateMutability": "view",
      "type": "function",
      "constant": true
    },
    {
      "inputs": [
        {
          "internalType": "uint256",
          "name": "_wasteId",
          "type": "uint256"
        },
        {
          "internalType": "string",
          "name": "_status",
          "type": "string"
        }
      ],
      "name": "updateShipment",
      "outputs": [],
      "stateMutability": "nonpayable",
      "type": "function"
    }
  ],
  "bytecode": "0x608060405234801561001057600080fd5b50604051610ac0380380610ac08339818101604052810190610032919061008d565b806000806101000a81548173ffffffffffffffffffffffffffffffffffffffff021916908373ffffffffffffffffffffffffffffffffffffffff160217905550506100ff565b600081519050610087816100e8565b92915050565b60006020828403121561009f57600080fd5b60006100ad84828501610078565b91505092915050565b60006100c1826100c8565b9050919050565b600073ffffffffffffffffffffffffffffffffffffffff82169050919050565b6100f1816100b6565b81146100fc57600080fd5b50565b6109b28061010e6000396000f3fe608060405234801561001057600080fd5b50600436106100415760003560e01c80632ac08a93146100465780635f22ba3b146100795780636a767f5014610095575b600080fd5b610060600480360381019061005b919061056c565b6100b3565b604051610070949392919061070b565b60405180910390f35b610093600480360381019061008e9190610595565b61018b565b005b61009d6103ea565b6040516100aa91906106d0565b60405180910390f35b60016020528060005260406000206000915090508060000154908060010180546100dc906108b4565b80601f0160208091040260200160405190810160405280929190818152602001828054610108906108b4565b80156101555780601f1061012a57610100808354040283529160200191610155565b820191906000526020600020905b81548152906001019060200180831161013857829003601f168201915b5050505050908060020160009054906101000a900473ffffffffffffffffffffffffffffffffffffffff16908060030154905084565b600260048111156101c5577f4e487b7100000000000000000000000000000000000000000000000000000000600052602160045260246000fd5b60008054906101000a900473ffffffffffffffffffffffffffffffffffffffff1673ffffffffffffffffffffffffffffffffffffffff166327820851336040518263ffffffff1660e01b815260040161021e91906106b5565b60206040518083038186803b15801561023657600080fd5b505afa15801561024a573d6000803e3d6000fd5b505050506040513d601f19601f8201168201806040525081019061026e9190610543565b60048111156102a6577f4e487b7100000000000000000000000000000000000000000000000000000000600052602160045260246000fd5b146102e6576040517f08c379a00000000000000000000000000000000000000000000000000000000081526004016102dd906106eb565b60405180910390fd5b60405180608001604052808381526020018281526020013373ffffffffffffffffffffffffffffffffffffffff168152602001428152506001600084815260200190815260200160002060008201518160000155602082015181600101908051906020019061035692919061040e565b5060408201518160020160006101000a81548173ffffffffffffffffffffffffffffffffffffffff021916908373ffffffffffffffffffffffffffffffffffffffff160217905550606082015181600301559050507f1125048ee9a44ab40bc37ff811dde73a5a87fce4c822c0c4a83cae14b0806e758282426040516103de93929190610757565b60405180910390a15050565b60008054906101000a900473ffffffffffffffffffffffffffffffffffffffff1681565b82805461041a906108b4565b90600052602060002090601f01602090048101928261043c5760008555610483565b82601f1061045557805160ff1916838001178555610483565b82800160010185558215610483579182015b82811115610482578251825591602001919060010190610467565b5b5090506104909190610494565b5090565b5b808211156104ad576000816000905550600101610495565b5090565b60006104c46104bf846107c6565b610795565b9050828152602081018484840111156104dc57600080fd5b6104e7848285610872565b509392505050565b6000815190506104fe81610955565b92915050565b600082601f83011261051557600080fd5b81356105258482602086016104b1565b91505092915050565b60008135905061053d81610965565b92915050565b60006020828403121561055557600080fd5b6000610563848285016104ef565b91505092915050565b60006020828403121561057e57600080fd5b600061058c8482850161052e565b91505092915050565b600080604083850312156105a857600080fd5b60006105b68582860161052e565b925050602083013567ffffffffffffffff8111156105d357600080fd5b6105df85828601610504565b9150509250929050565b6105f281610812565b82525050565b6106018161084e565b82525050565b6000610612826107f6565b61061c8185610801565b935061062c818560208601610881565b61063581610944565b840191505092915050565b600061064d603c83610801565b91507f556e617574686f72697a65643a204f6e6c79206c6f676973746963732070726f60008301527f7669646572732063616e2075706461746520736869706d656e74732e000000006020830152604082019050919050565b6106af81610844565b82525050565b60006020820190506106ca60008301846105e9565b92915050565b60006020820190506106e560008301846105f8565b92915050565b6000602082019050818103600083015261070481610640565b9050919050565b600060808201905061072060008301876106a6565b81810360208301526107328186610607565b905061074160408301856105e9565b61074e60608301846106a6565b95945050505050565b600060608201905061076c60008301866106a6565b818103602083015261077e8185610607565b905061078d60408301846106a6565b949350505050565b6000604051905081810181811067ffffffffffffffff821117156107bc576107bb610915565b5b8060405250919050565b600067ffffffffffffffff8211156107e1576107e0610915565b5b601f19601f8301169050602081019050919050565b600081519050919050565b600082825260208201905092915050565b600061081d82610824565b9050919050565b600073ffffffffffffffffffffffffffffffffffffffff82169050919050565b6000819050919050565b600061085982610860565b9050919050565b600061086b82610824565b9050919050565b82818337600083830152505050565b60005b8381101561089f578082015181840152602081019050610884565b838111156108ae576000848401525b50505050565b600060028204905060018216806108cc57607f821691505b602082108114156108e0576108df6108e6565b5b50919050565b7f4e487b7100000000000000000000000000000000000000000000000000000000600052602260045260246000fd5b7f4e487b7100000000000000000000000000000000000000000000000000000000600052604160045260246000fd5b6000601f19601f8301169050919050565b6005811061096257600080fd5b50565b61096e81610844565b811461097957600080fd5b5056fea26469706673582212202ab669f82357b0ca915bed67b053d37dfcc474be859d249d0269a63a18c7948d64736f6c63430008000033",
  "immutableReferences": {},
  "source": "// SPDX-License-Identifier: MIT\r\npragma solidity ^0.8.0;\r\n\r\nimport \"./UserManagement.sol\";\r\n\r\ncontract LogisticsTracking {\r\n    UserManagement public userManagement;\r\n\r\n    struct Shipment {\r\n        uint wasteId;\r\n        string status;\r\n        address transporter;\r\n        uint256 updatedAt;\r\n    }\r\n\r\n    mapping(uint => Shipment) public shipments;\r\n    \r\n    event ShipmentUpdated(uint wasteId, string status, uint256 updatedAt);\r\n\r\n    constructor(address _userManagementAddress) {\r\n        userManagement = UserManagement(_userManagementAddress);\r\n    }\r\n\r\n    // Only logistics providers can update shipments\r\n    function updateShipment(uint _wasteId, string memory _status) external {\r\n        require(\r\n            userManagement.getUserRole(msg.sender) == UserManagement.Role.Logistics,\r\n            \"Unauthorized: Only logistics providers can update shipments.\"\r\n        );\r\n        \r\n        shipments[_wasteId] = Shipment({\r\n            wasteId: _wasteId,\r\n            status: _status,\r\n            transporter: msg.sender,\r\n            updatedAt: block.timestamp\r\n        });\r\n        emit ShipmentUpdated(_wasteId, _status, block.timestamp);\r\n    }\r\n}",
  "sourcePath": "C:\\Users\\tanaj\\Downloads\\ewaste-tracking\\ewaste-tracking\\contracts\\LogisticsTracking.sol",
  "compiler": {
    "name": "solc",
    "version": "0.8.0+commit.c7dfd78e.Emscripten.clang"
  },
  "schemaVersion": "3.4.16",
  "updatedAt": "2025-03-04T06:11:20.176Z",
  "networkType": "ethereum",
  "devdoc": {
    "kind": "dev",
    "methods": {},
    "version": 1
  },
  "userdoc": {
    "kind": "user",
    "methods": {},
    "version": 1
  }
}