{
  "contractName": "RecyclingManagement",
  "abi": [
    {
      "inputs": [
        {
          "internalType": "address",
          "name": "_userManagementAddress",
          "type": "address"
        },
        {
          "internalType": "address",
          "name": "_eWasteTrackerAddress",
          "type": "address"
        }
      ],
      "stateMutability": "nonpayable",
      "type": "constructor"
    },
    {
      "anonymous": false,
      "inputs": [
        {
          "indexed": false,
          "internalType": "uint256",
          "name": "wasteId",
          "type": "uint256"
        },
        {
          "indexed": false,
          "internalType": "address",
          "name": "recycler",
          "type": "address"
        },
        {
          "indexed": false,
          "internalType": "string",
          "name": "reason",
          "type": "string"
        }
      ],
      "name": "NonCompliance",
      "type": "event"
    },
    {
      "anonymous": false,
      "inputs": [
        {
          "indexed": false,
          "internalType": "uint256",
          "name": "wasteId",
          "type": "uint256"
        },
        {
          "indexed": false,
          "internalType": "string",
          "name": "method",
          "type": "string"
        },
        {
          "indexed": false,
          "internalType": "uint256",
          "name": "recycledAt",
          "type": "uint256"
        }
      ],
      "name": "WasteRecycled",
      "type": "event"
    },
    {
      "inputs": [],
      "name": "eWasteTracker",
      "outputs": [
        {
          "internalType": "contract eWasteTracking",
          "name": "",
          "type": "address"
        }
      ],
      "stateMutability": "view",
      "type": "function",
      "constant": true
    },
    {
      "inputs": [
        {
          "internalType": "uint256",
          "name": "",
          "type": "uint256"
        }
      ],
      "name": "recycledWaste",
      "outputs": [
        {
          "internalType": "uint256",
          "name": "wasteId",
          "type": "uint256"
        },
        {
          "internalType": "string",
          "name": "method",
          "type": "string"
        },
        {
          "internalType": "address",
          "name": "recycler",
          "type": "address"
        },
        {
          "internalType": "uint256",
          "name": "recycledAt",
          "type": "uint256"
        }
      ],
      "stateMutability": "view",
      "type": "function",
      "constant": true
    },
    {
      "inputs": [],
      "name": "userManagement",
      "outputs": [
        {
          "internalType": "contract UserManagement",
          "name": "",
          "type": "address"
        }
      ],
      "stateMutability": "view",
      "type": "function",
      "constant": true
    },
    {
      "inputs": [
        {
          "internalType": "uint256",
          "name": "_wasteId",
          "type": "uint256"
        },
        {
          "internalType": "string",
          "name": "_method",
          "type": "string"
        }
      ],
      "name": "processRecycling",
      "outputs": [],
      "stateMutability": "nonpayable",
      "type": "function"
    },
    {
      "inputs": [
        {
          "internalType": "uint256",
          "name": "_wasteId",
          "type": "uint256"
        }
      ],
      "name": "getRecycledItem",
      "outputs": [
        {
          "internalType": "uint256",
          "name": "wasteId",
          "type": "uint256"
        },
        {
          "internalType": "string",
          "name": "method",
          "type": "string"
        },
        {
          "internalType": "address",
          "name": "recycler",
          "type": "address"
        },
        {
          "internalType": "uint256",
          "name": "recycledAt",
          "type": "uint256"
        }
      ],
      "stateMutability": "view",
      "type": "function",
      "constant": true
    }
  ],
  "bytecode": "0x60806040523480156200001157600080fd5b506040516200111c3803806200111c8339818101604052810190620000379190620000d7565b816000806101000a81548173ffffffffffffffffffffffffffffffffffffffff021916908373ffffffffffffffffffffffffffffffffffffffff16021790555080600160006101000a81548173ffffffffffffffffffffffffffffffffffffffff021916908373ffffffffffffffffffffffffffffffffffffffff160217905550505062000166565b600081519050620000d1816200014c565b92915050565b60008060408385031215620000eb57600080fd5b6000620000fb85828601620000c0565b92505060206200010e85828601620000c0565b9150509250929050565b600062000125826200012c565b9050919050565b600073ffffffffffffffffffffffffffffffffffffffff82169050919050565b620001578162000118565b81146200016357600080fd5b50565b610fa680620001766000396000f3fe608060405234801561001057600080fd5b50600436106100575760003560e01c80630a64d21c1461005c5780634763413c1461008f5780636a767f50146100c257806397392f6c146100e05780639b5e847c146100fc575b600080fd5b6100766004803603810190610071919061092a565b61011a565b6040516100869493929190610cb8565b60405180910390f35b6100a960048036038101906100a4919061092a565b610263565b6040516100b99493929190610cb8565b60405180910390f35b6100ca61033b565b6040516100d79190610beb565b60405180910390f35b6100fa60048036038101906100f59190610953565b61035f565b005b610104610714565b6040516101119190610c06565b60405180910390f35b600060606000806000600260008781526020019081526020016000206040518060800160405290816000820154815260200160018201805461015b90610e91565b80601f016020809104026020016040519081016040528092919081815260200182805461018790610e91565b80156101d45780601f106101a9576101008083540402835291602001916101d4565b820191906000526020600020905b8154815290600101906020018083116101b757829003601f168201915b505050505081526020016002820160009054906101000a900473ffffffffffffffffffffffffffffffffffffffff1673ffffffffffffffffffffffffffffffffffffffff1673ffffffffffffffffffffffffffffffffffffffff168152602001600382015481525050905080600001518160200151826040015183606001519450945094509450509193509193565b600260205280600052604060002060009150905080600001549080600101805461028c90610e91565b80601f01602080910402602001604051908101604052809291908181526020018280546102b890610e91565b80156103055780601f106102da57610100808354040283529160200191610305565b820191906000526020600020905b8154815290600101906020018083116102e857829003601f168201915b5050505050908060020160009054906101000a900473ffffffffffffffffffffffffffffffffffffffff16908060030154905084565b60008054906101000a900473ffffffffffffffffffffffffffffffffffffffff1681565b60016004811115610399577f4e487b7100000000000000000000000000000000000000000000000000000000600052602160045260246000fd5b60008054906101000a900473ffffffffffffffffffffffffffffffffffffffff1673ffffffffffffffffffffffffffffffffffffffff166327820851336040518263ffffffff1660e01b81526004016103f29190610bd0565b60206040518083038186803b15801561040a57600080fd5b505afa15801561041e573d6000803e3d6000fd5b505050506040513d601f19601f820116820180604052508101906104429190610901565b600481111561047a577f4e487b7100000000000000000000000000000000000000000000000000000000600052602160045260246000fd5b146104ba576040517f08c379a00000000000000000000000000000000000000000000000000000000081526004016104b190610c41565b60405180910390fd5b6000806000806000806000600160009054906101000a900473ffffffffffffffffffffffffffffffffffffffff1673ffffffffffffffffffffffffffffffffffffffff166306cf1cb68a6040518263ffffffff1660e01b81526004016105209190610c61565b60006040518083038186803b15801561053857600080fd5b505afa15801561054c573d6000803e3d6000fd5b505050506040513d6000823e3d601f19601f8201168201806040525081019061057591906109a7565b965096509650965096509650965060008714156105c7576040517f08c379a00000000000000000000000000000000000000000000000000000000081526004016105be90610c21565b60405180910390fd5b82421115610609577f13715eb6cb10ad4ea7ee7db01b4d580dc3863989789f347d47bbf765fd7a79158933604051610600929190610c7c565b60405180910390a15b60405180608001604052808a81526020018981526020013373ffffffffffffffffffffffffffffffffffffffff16815260200142815250600260008b815260200190815260200160002060008201518160000155602082015181600101908051906020019061067992919061073a565b5060408201518160020160006101000a81548173ffffffffffffffffffffffffffffffffffffffff021916908373ffffffffffffffffffffffffffffffffffffffff160217905550606082015181600301559050507f70d1c7843eafef6edc4e08159734d096ada6e0184199c048971a12ea8270adca89894260405161070193929190610d04565b60405180910390a1505050505050505050565b600160009054906101000a900473ffffffffffffffffffffffffffffffffffffffff1681565b82805461074690610e91565b90600052602060002090601f01602090048101928261076857600085556107af565b82601f1061078157805160ff19168380011785556107af565b828001600101855582156107af579182015b828111156107ae578251825591602001919060010190610793565b5b5090506107bc91906107c0565b5090565b5b808211156107d95760008160009055506001016107c1565b5090565b60006107f06107eb84610d73565b610d42565b90508281526020810184848401111561080857600080fd5b610813848285610e4f565b509392505050565b600061082e61082984610d73565b610d42565b90508281526020810184848401111561084657600080fd5b610851848285610e5e565b509392505050565b60008151905061086881610f32565b92915050565b60008151905061087d81610f49565b92915050565b600082601f83011261089457600080fd5b81356108a48482602086016107dd565b91505092915050565b600082601f8301126108be57600080fd5b81516108ce84826020860161081b565b91505092915050565b6000813590506108e681610f59565b92915050565b6000815190506108fb81610f59565b92915050565b60006020828403121561091357600080fd5b60006109218482850161086e565b91505092915050565b60006020828403121561093c57600080fd5b600061094a848285016108d7565b91505092915050565b6000806040838503121561096657600080fd5b6000610974858286016108d7565b925050602083013567ffffffffffffffff81111561099157600080fd5b61099d85828601610883565b9150509250929050565b600080600080600080600060e0888a0312156109c257600080fd5b60006109d08a828b016108ec565b975050602088015167ffffffffffffffff8111156109ed57600080fd5b6109f98a828b016108ad565b965050604088015167ffffffffffffffff811115610a1657600080fd5b610a228a828b016108ad565b9550506060610a338a828b016108ec565b9450506080610a448a828b016108ec565b93505060a0610a558a828b016108ec565b92505060c0610a668a828b01610859565b91505092959891949750929550565b610a7e81610dbf565b82525050565b610a8d81610e07565b82525050565b610a9c81610e2b565b82525050565b6000610aad82610da3565b610ab78185610dae565b9350610ac7818560208601610e5e565b610ad081610f21565b840191505092915050565b6000610ae8601a83610dae565b91507f52656379636c696e67206d697373656420646561646c696e652e0000000000006000830152602082019050919050565b6000610b28601a83610dae565b91507f5761737465206974656d20646f6573206e6f742065786973742e0000000000006000830152602082019050919050565b6000610b68602f83610dae565b91507f556e617574686f72697a65643a204f6e6c792072656379636c6572732063616e60008301527f2070726f636573732077617374652e00000000000000000000000000000000006020830152604082019050919050565b610bca81610dfd565b82525050565b6000602082019050610be56000830184610a75565b92915050565b6000602082019050610c006000830184610a84565b92915050565b6000602082019050610c1b6000830184610a93565b92915050565b60006020820190508181036000830152610c3a81610b1b565b9050919050565b60006020820190508181036000830152610c5a81610b5b565b9050919050565b6000602082019050610c766000830184610bc1565b92915050565b6000606082019050610c916000830185610bc1565b610c9e6020830184610a75565b8181036040830152610caf81610adb565b90509392505050565b6000608082019050610ccd6000830187610bc1565b8181036020830152610cdf8186610aa2565b9050610cee6040830185610a75565b610cfb6060830184610bc1565b95945050505050565b6000606082019050610d196000830186610bc1565b8181036020830152610d2b8185610aa2565b9050610d3a6040830184610bc1565b949350505050565b6000604051905081810181811067ffffffffffffffff82111715610d6957610d68610ef2565b5b8060405250919050565b600067ffffffffffffffff821115610d8e57610d8d610ef2565b5b601f19601f8301169050602081019050919050565b600081519050919050565b600082825260208201905092915050565b6000610dca82610ddd565b9050919050565b60008115159050919050565b600073ffffffffffffffffffffffffffffffffffffffff82169050919050565b6000819050919050565b6000610e1282610e19565b9050919050565b6000610e2482610ddd565b9050919050565b6000610e3682610e3d565b9050919050565b6000610e4882610ddd565b9050919050565b82818337600083830152505050565b60005b83811015610e7c578082015181840152602081019050610e61565b83811115610e8b576000848401525b50505050565b60006002820490506001821680610ea957607f821691505b60208210811415610ebd57610ebc610ec3565b5b50919050565b7f4e487b7100000000000000000000000000000000000000000000000000000000600052602260045260246000fd5b7f4e487b7100000000000000000000000000000000000000000000000000000000600052604160045260246000fd5b6000601f19601f8301169050919050565b610f3b81610dd1565b8114610f4657600080fd5b50565b60058110610f5657600080fd5b50565b610f6281610dfd565b8114610f6d57600080fd5b5056fea26469706673582212201be29df12316f967775bbcdf4a6285b7e43b9ed3a764b9787f5a5cafa0ad190564736f6c63430008000033",
  "immutableReferences": {},
  "source": "// SPDX-License-Identifier: MIT\r\npragma solidity ^0.8.0;\r\n\r\nimport \"./UserManagement.sol\";\r\nimport \"./eWasteTracking.sol\";\r\n\r\ncontract RecyclingManagement {\r\n    UserManagement public userManagement;\r\n    eWasteTracking public eWasteTracker;\r\n\r\n    struct RecycledItem {\r\n        uint wasteId;\r\n        string method;\r\n        address recycler; \r\n        uint256 recycledAt;\r\n    }\r\n\r\n    mapping(uint => RecycledItem) public recycledWaste;\r\n\r\n    event WasteRecycled(uint wasteId, string method, uint256 recycledAt);\r\n    event NonCompliance(uint wasteId, address recycler, string reason);\r\n\r\n    constructor(address _userManagementAddress, address _eWasteTrackerAddress) {\r\n        userManagement = UserManagement(_userManagementAddress);\r\n        eWasteTracker = eWasteTracking(_eWasteTrackerAddress);\r\n    }\r\n\r\n    function processRecycling(uint _wasteId, string memory _method) external {\r\n        require(\r\n            userManagement.getUserRole(msg.sender) == UserManagement.Role.Recycler,\r\n            \"Unauthorized: Only recyclers can process waste.\"\r\n        );\r\n        \r\n        (\r\n        uint id,\r\n        string memory wasteType,\r\n        string memory origin,\r\n        uint quantity,\r\n        uint256 deadline,\r\n        uint256 loggedAt,\r\n        bool isProcessed\r\n        ) = eWasteTracker.getWasteItem(_wasteId);\r\n        require(id != 0, \"Waste item does not exist.\");\r\n        \r\n        if (block.timestamp > deadline) {\r\n        emit NonCompliance(_wasteId, msg.sender, \"Recycling missed deadline.\");\r\n    }\r\n        \r\n        recycledWaste[_wasteId] = RecycledItem({\r\n            wasteId: _wasteId,\r\n            method: _method,\r\n            recycler: msg.sender, \r\n            recycledAt: block.timestamp\r\n        });\r\n        emit WasteRecycled(_wasteId, _method, block.timestamp);\r\n    }\r\n\r\n    function getRecycledItem(uint _wasteId) external view returns (\r\n        uint wasteId,\r\n        string memory method,\r\n        address recycler,\r\n        uint256 recycledAt\r\n    ) {\r\n        RecycledItem memory item = recycledWaste[_wasteId];\r\n        return (\r\n            item.wasteId,\r\n            item.method,\r\n            item.recycler,\r\n            item.recycledAt\r\n        );\r\n    }\r\n}",
  "sourcePath": "C:\\Users\\tanaj\\Downloads\\ewaste-tracking\\ewaste-tracking\\contracts\\RecyclingManagement.sol",
  "compiler": {
    "name": "solc",
    "version": "0.8.0+commit.c7dfd78e.Emscripten.clang"
  },
  "schemaVersion": "3.4.16",
  "updatedAt": "2025-03-04T06:11:20.185Z",
  "networkType": "ethereum",
  "devdoc": {
    "kind": "dev",
    "methods": {},
    "version": 1
  },
  "userdoc": {
    "kind": "user",
    "methods": {},
    "version": 1
  }
}