{
  "contractName": "UserManagement",
  "abi": [
    {
      "inputs": [],
      "stateMutability": "nonpayable",
      "type": "constructor"
    },
    {
      "anonymous": false,
      "inputs": [
        {
          "indexed": true,
          "internalType": "address",
          "name": "user",
          "type": "address"
        },
        {
          "indexed": false,
          "internalType": "string",
          "name": "name",
          "type": "string"
        },
        {
          "indexed": false,
          "internalType": "enum UserManagement.Role",
          "name": "role",
          "type": "uint8"
        }
      ],
      "name": "UserLoggedIn",
      "type": "event"
    },
    {
      "anonymous": false,
      "inputs": [
        {
          "indexed": true,
          "internalType": "address",
          "name": "user",
          "type": "address"
        },
        {
          "indexed": false,
          "internalType": "string",
          "name": "name",
          "type": "string"
        },
        {
          "indexed": false,
          "internalType": "enum UserManagement.Role",
          "name": "role",
          "type": "uint8"
        }
      ],
      "name": "UserRegistered",
      "type": "event"
    },
    {
      "inputs": [],
      "name": "admin",
      "outputs": [
        {
          "internalType": "address",
          "name": "",
          "type": "address"
        }
      ],
      "stateMutability": "view",
      "type": "function",
      "constant": true
    },
    {
      "inputs": [
        {
          "internalType": "string",
          "name": "_name",
          "type": "string"
        },
        {
          "internalType": "enum UserManagement.Role",
          "name": "_role",
          "type": "uint8"
        }
      ],
      "name": "registerUser",
      "outputs": [],
      "stateMutability": "nonpayable",
      "type": "function"
    },
    {
      "inputs": [
        {
          "internalType": "string",
          "name": "_role",
          "type": "string"
        }
      ],
      "name": "loginUser",
      "outputs": [
        {
          "internalType": "string",
          "name": "",
          "type": "string"
        },
        {
          "internalType": "enum UserManagement.Role",
          "name": "",
          "type": "uint8"
        }
      ],
      "stateMutability": "view",
      "type": "function",
      "constant": true
    },
    {
      "inputs": [
        {
          "internalType": "address",
          "name": "_user",
          "type": "address"
        }
      ],
      "name": "getUserCount",
      "outputs": [
        {
          "internalType": "uint256",
          "name": "",
          "type": "uint256"
        }
      ],
      "stateMutability": "view",
      "type": "function",
      "constant": true
    },
    {
      "inputs": [
        {
          "internalType": "address",
          "name": "_user",
          "type": "address"
        }
      ],
      "name": "getUserRole",
      "outputs": [
        {
          "internalType": "enum UserManagement.Role",
          "name": "",
          "type": "uint8"
        }
      ],
      "stateMutability": "view",
      "type": "function",
      "constant": true
    },
    {
      "inputs": [
        {
          "internalType": "address",
          "name": "_user",
          "type": "address"
        },
        {
          "internalType": "string",
          "name": "_role",
          "type": "string"
        }
      ],
      "name": "getUserByRole",
      "outputs": [
        {
          "internalType": "string",
          "name": "",
          "type": "string"
        },
        {
          "internalType": "enum UserManagement.Role",
          "name": "",
          "type": "uint8"
        }
      ],
      "stateMutability": "view",
      "type": "function",
      "constant": true
    }
  ],
  "bytecode": "0x608060405234801561001057600080fd5b5033600160006101000a81548173ffffffffffffffffffffffffffffffffffffffff021916908373ffffffffffffffffffffffffffffffffffffffff1602179055506116f9806100616000396000f3fe608060405234801561001057600080fd5b50600436106100625760003560e01c806303e8837c146100675780631c14ce5e1461009757806327820851146100c8578063338e12eb146100f857806377ddd70f14610114578063f851a44014610145575b600080fd5b610081600480360381019061007c919061108b565b610163565b60405161008e91906113e5565b60405180910390f35b6100b160048036038101906100ac9190611108565b6101ae565b6040516100bf929190611375565b60405180910390f35b6100e260048036038101906100dd919061108b565b610547565b6040516100ef919061135a565b60405180910390f35b610112600480360381019061010d9190611149565b61063f565b005b61012e600480360381019061012991906110b4565b610a39565b60405161013c929190611375565b60405180910390f35b61014d610dd4565b60405161015a919061133f565b60405180910390f35b60008060008373ffffffffffffffffffffffffffffffffffffffff1673ffffffffffffffffffffffffffffffffffffffff168152602001908152602001600020805490509050919050565b60606000806101bc84610dfa565b905060005b6000803373ffffffffffffffffffffffffffffffffffffffff1673ffffffffffffffffffffffffffffffffffffffff1681526020019081526020016000208054905081101561050657816004811115610243577f4e487b7100000000000000000000000000000000000000000000000000000000600052602160045260246000fd5b6000803373ffffffffffffffffffffffffffffffffffffffff1673ffffffffffffffffffffffffffffffffffffffff16815260200190815260200160002082815481106102b9577f4e487b7100000000000000000000000000000000000000000000000000000000600052603260045260246000fd5b906000526020600020906002020160010160009054906101000a900460ff166004811115610310577f4e487b7100000000000000000000000000000000000000000000000000000000600052602160045260246000fd5b14156104f35760008060003373ffffffffffffffffffffffffffffffffffffffff1673ffffffffffffffffffffffffffffffffffffffff168152602001908152602001600020828154811061038e577f4e487b7100000000000000000000000000000000000000000000000000000000600052603260045260246000fd5b90600052602060002090600202016040518060600160405290816000820180546103b790611540565b80601f01602080910402602001604051908101604052809291908181526020018280546103e390611540565b80156104305780601f1061040557610100808354040283529160200191610430565b820191906000526020600020905b81548152906001019060200180831161041357829003601f168201915b505050505081526020016001820160009054906101000a900460ff166004811115610484577f4e487b7100000000000000000000000000000000000000000000000000000000600052602160045260246000fd5b60048111156104bc577f4e487b7100000000000000000000000000000000000000000000000000000000600052602160045260246000fd5b81526020016001820160019054906101000a900460ff16151515158152505090508060000151816020015194509450505050610542565b80806104fe90611572565b9150506101c1565b506040517f08c379a0000000000000000000000000000000000000000000000000000000008152600401610539906113a5565b60405180910390fd5b915091565b600080600090506000808473ffffffffffffffffffffffffffffffffffffffff1673ffffffffffffffffffffffffffffffffffffffff16815260200190815260200160002080549050811015610634576000808473ffffffffffffffffffffffffffffffffffffffff1673ffffffffffffffffffffffffffffffffffffffff168152602001908152602001600020818154811061060d577f4e487b7100000000000000000000000000000000000000000000000000000000600052603260045260246000fd5b906000526020600020906002020160010160009054906101000a900460ff1691505061063a565b50600490505b919050565b60005b6000803373ffffffffffffffffffffffffffffffffffffffff1673ffffffffffffffffffffffffffffffffffffffff168152602001908152602001600020805490508110156108925782805190602001206000803373ffffffffffffffffffffffffffffffffffffffff1673ffffffffffffffffffffffffffffffffffffffff1681526020019081526020016000208281548110610709577f4e487b7100000000000000000000000000000000000000000000000000000000600052603260045260246000fd5b90600052602060002090600202016000016040516107279190611328565b604051809103902014801561083f5750816004811115610770577f4e487b7100000000000000000000000000000000000000000000000000000000600052602160045260246000fd5b6000803373ffffffffffffffffffffffffffffffffffffffff1673ffffffffffffffffffffffffffffffffffffffff16815260200190815260200160002082815481106107e6577f4e487b7100000000000000000000000000000000000000000000000000000000600052603260045260246000fd5b906000526020600020906002020160010160009054906101000a900460ff16600481111561083d577f4e487b7100000000000000000000000000000000000000000000000000000000600052602160045260246000fd5b145b1561087f576040517f08c379a0000000000000000000000000000000000000000000000000000000008152600401610876906113c5565b60405180910390fd5b808061088a90611572565b915050610642565b506000803373ffffffffffffffffffffffffffffffffffffffff1673ffffffffffffffffffffffffffffffffffffffff168152602001908152602001600020604051806060016040528084815260200183600481111561091b577f4e487b7100000000000000000000000000000000000000000000000000000000600052602160045260246000fd5b8152602001600115158152509080600181540180825580915050600190039060005260206000209060020201600090919091909150600082015181600001908051906020019061096c929190610f56565b5060208201518160010160006101000a81548160ff021916908360048111156109be577f4e487b7100000000000000000000000000000000000000000000000000000000600052602160045260246000fd5b021790555060408201518160010160016101000a81548160ff02191690831515021790555050503373ffffffffffffffffffffffffffffffffffffffff167fc2e5d5da58bd71d1a2d14cdef02a4256d971b728088f8190d067ccfbae3bd73e8383604051610a2d929190611375565b60405180910390a25050565b6060600080610a4784610dfa565b905060005b6000808773ffffffffffffffffffffffffffffffffffffffff1673ffffffffffffffffffffffffffffffffffffffff16815260200190815260200160002080549050811015610d9157816004811115610ace577f4e487b7100000000000000000000000000000000000000000000000000000000600052602160045260246000fd5b6000808873ffffffffffffffffffffffffffffffffffffffff1673ffffffffffffffffffffffffffffffffffffffff1681526020019081526020016000208281548110610b44577f4e487b7100000000000000000000000000000000000000000000000000000000600052603260045260246000fd5b906000526020600020906002020160010160009054906101000a900460ff166004811115610b9b577f4e487b7100000000000000000000000000000000000000000000000000000000600052602160045260246000fd5b1415610d7e5760008060008873ffffffffffffffffffffffffffffffffffffffff1673ffffffffffffffffffffffffffffffffffffffff1681526020019081526020016000208281548110610c19577f4e487b7100000000000000000000000000000000000000000000000000000000600052603260045260246000fd5b9060005260206000209060020201604051806060016040529081600082018054610c4290611540565b80601f0160208091040260200160405190810160405280929190818152602001828054610c6e90611540565b8015610cbb5780601f10610c9057610100808354040283529160200191610cbb565b820191906000526020600020905b815481529060010190602001808311610c9e57829003601f168201915b505050505081526020016001820160009054906101000a900460ff166004811115610d0f577f4e487b7100000000000000000000000000000000000000000000000000000000600052602160045260246000fd5b6004811115610d47577f4e487b7100000000000000000000000000000000000000000000000000000000600052602160045260246000fd5b81526020016001820160019054906101000a900460ff16151515158152505090508060000151816020015194509450505050610dcd565b8080610d8990611572565b915050610a4c565b506040517f08c379a0000000000000000000000000000000000000000000000000000000008152600401610dc4906113a5565b60405180910390fd5b9250929050565b600160009054906101000a900473ffffffffffffffffffffffffffffffffffffffff1681565b60006040518060400160405280600881526020017f50726f64756365720000000000000000000000000000000000000000000000008152508051906020012082805190602001201415610e505760009050610f51565b6040518060400160405280600881526020017f52656379636c65720000000000000000000000000000000000000000000000008152508051906020012082805190602001201415610ea45760019050610f51565b6040518060400160405280600981526020017f4c6f6769737469637300000000000000000000000000000000000000000000008152508051906020012082805190602001201415610ef85760029050610f51565b6040518060400160405280600981526020017f526567756c61746f7200000000000000000000000000000000000000000000008152508051906020012082805190602001201415610f4c5760039050610f51565b600490505b919050565b828054610f6290611540565b90600052602060002090601f016020900481019282610f845760008555610fcb565b82601f10610f9d57805160ff1916838001178555610fcb565b82800160010185558215610fcb579182015b82811115610fca578251825591602001919060010190610faf565b5b509050610fd89190610fdc565b5090565b5b80821115610ff5576000816000905550600101610fdd565b5090565b600061100c61100784611431565b611400565b90508281526020810184848401111561102457600080fd5b61102f8482856114fe565b509392505050565b6000813590506110468161169c565b92915050565b60008135905061105b816116b3565b92915050565b600082601f83011261107257600080fd5b8135611082848260208601610ff9565b91505092915050565b60006020828403121561109d57600080fd5b60006110ab84828501611037565b91505092915050565b600080604083850312156110c757600080fd5b60006110d585828601611037565b925050602083013567ffffffffffffffff8111156110f257600080fd5b6110fe85828601611061565b9150509250929050565b60006020828403121561111a57600080fd5b600082013567ffffffffffffffff81111561113457600080fd5b61114084828501611061565b91505092915050565b6000806040838503121561115c57600080fd5b600083013567ffffffffffffffff81111561117657600080fd5b61118285828601611061565b92505060206111938582860161104c565b9150509250929050565b6111a68161149d565b82525050565b600081546111b981611540565b6111c38186611481565b945060018216600081146111de57600181146111ef57611222565b60ff19831686528186019350611222565b6111f885611461565b60005b8381101561121a578154818901526001820191506020810190506111fb565b838801955050505b50505092915050565b611234816114ec565b82525050565b600061124582611476565b61124f818561148c565b935061125f81856020860161150d565b61126881611677565b840191505092915050565b6000611280601d8361148c565b91507f4e6f20757365722077697468207468697320726f6c6520666f756e642e0000006000830152602082019050919050565b60006112c060338361148c565b91507f5573657220776974682074686973206e616d6520616e6420726f6c652069732060008301527f616c726561647920726567697374657265642e000000000000000000000000006020830152604082019050919050565b611322816114e2565b82525050565b600061133482846111ac565b915081905092915050565b6000602082019050611354600083018461119d565b92915050565b600060208201905061136f600083018461122b565b92915050565b6000604082019050818103600083015261138f818561123a565b905061139e602083018461122b565b9392505050565b600060208201905081810360008301526113be81611273565b9050919050565b600060208201905081810360008301526113de816112b3565b9050919050565b60006020820190506113fa6000830184611319565b92915050565b6000604051905081810181811067ffffffffffffffff8211171561142757611426611648565b5b8060405250919050565b600067ffffffffffffffff82111561144c5761144b611648565b5b601f19601f8301169050602081019050919050565b60008190508160005260206000209050919050565b600081519050919050565b600081905092915050565b600082825260208201905092915050565b60006114a8826114c2565b9050919050565b60008190506114bd82611688565b919050565b600073ffffffffffffffffffffffffffffffffffffffff82169050919050565b6000819050919050565b60006114f7826114af565b9050919050565b82818337600083830152505050565b60005b8381101561152b578082015181840152602081019050611510565b8381111561153a576000848401525b50505050565b6000600282049050600182168061155857607f821691505b6020821081141561156c5761156b611619565b5b50919050565b600061157d826114e2565b91507fffffffffffffffffffffffffffffffffffffffffffffffffffffffffffffffff8214156115b0576115af6115bb565b5b600182019050919050565b7f4e487b7100000000000000000000000000000000000000000000000000000000600052601160045260246000fd5b7f4e487b7100000000000000000000000000000000000000000000000000000000600052602160045260246000fd5b7f4e487b7100000000000000000000000000000000000000000000000000000000600052602260045260246000fd5b7f4e487b7100000000000000000000000000000000000000000000000000000000600052604160045260246000fd5b6000601f19601f8301169050919050565b60058110611699576116986115ea565b5b50565b6116a58161149d565b81146116b057600080fd5b50565b600581106116c057600080fd5b5056fea2646970667358221220aae8eb54d24318863f7d0ed38471de15b9ebfb6b26b3496743451c08066b550664736f6c63430008000033",
  "immutableReferences": {},
  "source": "// SPDX-License-Identifier: MIT\r\npragma solidity ^0.8.0;\r\n\r\ncontract UserManagement {\r\n    enum Role { Producer, Recycler, Logistics, Regulator, None }\r\n\r\n    struct User {\r\n        string name;\r\n        Role role;\r\n        bool isRegistered;\r\n    }\r\n\r\n    mapping(address => User[]) private users;\r\n    address public admin;\r\n\r\n    event UserRegistered(address indexed user, string name, Role role);\r\n    event UserLoggedIn(address indexed user, string name, Role role);\r\n\r\n    modifier onlyAdmin() {\r\n        require(msg.sender == admin, \"Only admin can perform this action.\");\r\n        _;\r\n    }\r\n\r\n    constructor() {\r\n        admin = msg.sender;\r\n    }\r\n\r\n    function registerUser(string memory _name, Role _role) external {\r\n        for (uint i = 0; i < users[msg.sender].length; i++) {\r\n            if (keccak256(bytes(users[msg.sender][i].name)) == keccak256(bytes(_name)) && users[msg.sender][i].role == _role) {\r\n                revert(\"User with this name and role is already registered.\");\r\n            }\r\n        }\r\n        users[msg.sender].push(User(_name, _role, true));\r\n        emit UserRegistered(msg.sender, _name, _role);\r\n    }\r\n\r\n    function loginUser(string memory _role) external view returns (string memory, Role) {\r\n        Role roleEnum = getRoleFromString(_role);\r\n        for (uint i = 0; i < users[msg.sender].length; i++) {\r\n            if (users[msg.sender][i].role == roleEnum) {\r\n                User memory user = users[msg.sender][i];\r\n                return (user.name, user.role);\r\n            }\r\n        }\r\n        revert(\"No user with this role found.\");\r\n    }\r\n\r\n    function getUserCount(address _user) external view returns (uint) {\r\n        return users[_user].length;\r\n    }\r\n\r\n    //   Returns the ROLE of the CALLER (msg.sender)\r\n    function getUserRole(address _user) public view returns (Role) {\r\n        for (uint i = 0; i < users[_user].length; i++) {\r\n          return users[_user][i].role; // Returns the first role found for the user. You might want to handle multiple roles.\r\n        }\r\n        return Role.None; // Return None if no role is found\r\n    }\r\n\r\n    function getUserByRole(address _user, string memory _role) external view returns (string memory, Role) {\r\n        Role roleEnum = getRoleFromString(_role);\r\n        for (uint i = 0; i < users[_user].length; i++) {\r\n            if (users[_user][i].role == roleEnum) {\r\n                User memory user = users[_user][i];\r\n                return (user.name, user.role);\r\n            }\r\n        }\r\n        revert(\"No user with this role found.\");\r\n    }\r\n\r\n    function getRoleFromString(string memory _role) private pure returns (Role) {\r\n        if (keccak256(bytes(_role)) == keccak256(bytes(\"Producer\"))) {\r\n            return Role.Producer;\r\n        } else if (keccak256(bytes(_role)) == keccak256(bytes(\"Recycler\"))) {\r\n            return Role.Recycler;\r\n        } else if (keccak256(bytes(_role)) == keccak256(bytes(\"Logistics\"))) {\r\n            return Role.Logistics;\r\n        } else if (keccak256(bytes(_role)) == keccak256(bytes(\"Regulator\"))) {\r\n            return Role.Regulator;\r\n        } else {\r\n            return Role.None;\r\n        }\r\n    }\r\n}",
  "sourcePath": "C:\\Users\\tanaj\\Downloads\\ewaste-tracking\\ewaste-tracking\\contracts\\UserManagement.sol",
  "compiler": {
    "name": "solc",
    "version": "0.8.0+commit.c7dfd78e.Emscripten.clang"
  },
  "schemaVersion": "3.4.16",
  "updatedAt": "2025-03-04T06:11:20.155Z",
  "networkType": "ethereum",
  "devdoc": {
    "kind": "dev",
    "methods": {},
    "version": 1
  },
  "userdoc": {
    "kind": "user",
    "methods": {},
    "version": 1
  }
}